{
  "contractName": "MileStarter",
  "abi": [
    {
      "anonymous": false,
      "inputs": [
        {
          "indexed": false,
          "internalType": "address",
          "name": "creator",
          "type": "address"
        },
        {
          "indexed": false,
          "internalType": "uint256",
          "name": "goal",
          "type": "uint256"
        },
        {
          "indexed": false,
          "internalType": "uint256",
          "name": "startAt",
          "type": "uint256"
        },
        {
          "indexed": false,
          "internalType": "uint256",
          "name": "endAt",
          "type": "uint256"
        }
      ],
      "name": "Launch",
      "type": "event"
    },
    {
      "anonymous": false,
      "inputs": [
        {
          "indexed": false,
          "internalType": "address",
          "name": "backer",
          "type": "address"
        },
        {
          "indexed": false,
          "internalType": "uint256",
          "name": "amount",
          "type": "uint256"
        },
        {
          "indexed": false,
          "internalType": "uint256",
          "name": "time",
          "type": "uint256"
        }
      ],
      "name": "Pledge",
      "type": "event"
    },
    {
      "inputs": [],
      "name": "campaign",
      "outputs": [
        {
          "internalType": "address payable",
          "name": "creator",
          "type": "address"
        },
        {
          "internalType": "uint256",
          "name": "goal",
          "type": "uint256"
        },
        {
          "internalType": "uint256",
          "name": "endAt",
          "type": "uint256"
        }
      ],
      "stateMutability": "view",
      "type": "function",
      "constant": true
    },
    {
      "inputs": [],
      "name": "earlyBirdBackersCount",
      "outputs": [
        {
          "internalType": "uint256",
          "name": "",
          "type": "uint256"
        }
      ],
      "stateMutability": "view",
      "type": "function",
      "constant": true
    },
    {
      "inputs": [],
      "name": "isVeto",
      "outputs": [
        {
          "internalType": "bool",
          "name": "",
          "type": "bool"
        }
      ],
      "stateMutability": "view",
      "type": "function",
      "constant": true
    },
    {
      "inputs": [
        {
          "internalType": "uint256",
          "name": "_goal",
          "type": "uint256"
        }
      ],
      "name": "launchCampaign",
      "outputs": [],
      "stateMutability": "nonpayable",
      "type": "function"
    },
    {
      "inputs": [],
      "name": "pledge",
      "outputs": [],
      "stateMutability": "payable",
      "type": "function",
      "payable": true
    },
    {
      "inputs": [],
      "name": "pledgeEarlyBird",
      "outputs": [],
      "stateMutability": "payable",
      "type": "function",
      "payable": true
    },
    {
      "inputs": [],
      "name": "veto",
      "outputs": [],
      "stateMutability": "payable",
      "type": "function",
      "payable": true
    },
    {
      "inputs": [],
      "name": "getBackers",
      "outputs": [
        {
          "internalType": "address payable[]",
          "name": "",
          "type": "address[]"
        }
      ],
      "stateMutability": "view",
      "type": "function",
      "constant": true
    },
    {
      "inputs": [],
      "name": "getEarlyBirdBackers",
      "outputs": [
        {
          "internalType": "address payable[]",
          "name": "",
          "type": "address[]"
        }
      ],
      "stateMutability": "view",
      "type": "function",
      "constant": true
    },
    {
      "inputs": [],
      "name": "getVetoBackers",
      "outputs": [
        {
          "internalType": "address payable[]",
          "name": "",
          "type": "address[]"
        }
      ],
      "stateMutability": "view",
      "type": "function",
      "constant": true
    },
    {
      "inputs": [],
      "name": "getCampaign",
      "outputs": [
        {
          "internalType": "address payable",
          "name": "",
          "type": "address"
        },
        {
          "internalType": "uint256",
          "name": "",
          "type": "uint256"
        },
        {
          "internalType": "uint256",
          "name": "",
          "type": "uint256"
        }
      ],
      "stateMutability": "view",
      "type": "function",
      "constant": true
    },
    {
      "inputs": [],
      "name": "getIsVeto",
      "outputs": [
        {
          "internalType": "bool",
          "name": "",
          "type": "bool"
        }
      ],
      "stateMutability": "view",
      "type": "function",
      "constant": true
    },
    {
      "inputs": [],
      "name": "getPledged",
      "outputs": [
        {
          "internalType": "uint256",
          "name": "",
          "type": "uint256"
        }
      ],
      "stateMutability": "view",
      "type": "function",
      "constant": true
    },
    {
      "inputs": [],
      "name": "cancelCampaign",
      "outputs": [],
      "stateMutability": "nonpayable",
      "type": "function"
    },
    {
      "inputs": [],
      "name": "checkIfFundingIsDone",
      "outputs": [],
      "stateMutability": "nonpayable",
      "type": "function"
    },
    {
      "inputs": [],
      "name": "checkIfVetoIsOver",
      "outputs": [],
      "stateMutability": "nonpayable",
      "type": "function"
    },
    {
      "inputs": [],
      "name": "claimAfterVeto",
      "outputs": [],
      "stateMutability": "nonpayable",
      "type": "function"
    }
  ],
  "bytecode": "0x608060405234801561001057600080fd5b50611e49806100206000396000f3fe6080604052600436106100fe5760003560e01c8063811e539c116100955780639a8532ca116100645780639a8532ca14610277578063c2db5954146102a2578063d23eda57146102cd578063ef9b78c6146102f8578063f1816d9214610302576100fe565b8063811e539c146102125780638131b02a1461023f57806388ffe86714610256578063980e784414610260576100fe565b806328c2cd40116100d157806328c2cd401461019b57806330f3e3da146101c6578063501b5183146101f157806362eb3a61146101fb576100fe565b80630f2f26ef14610103578063117f0d901461011a578063236b8e3a146101455780632664edcd14610172575b600080fd5b34801561010f57600080fd5b5061011861032d565b005b34801561012657600080fd5b5061012f610481565b60405161013c9190611a4f565b60405180910390f35b34801561015157600080fd5b5061015a610487565b6040516101699392919061181f565b60405180910390f35b34801561017e57600080fd5b50610199600480360381019061019491906115d7565b6104c8565b005b3480156101a757600080fd5b506101b061063e565b6040516101bd9190611a4f565b60405180910390f35b3480156101d257600080fd5b506101db610646565b6040516101e891906118d2565b60405180910390f35b6101f96106d4565b005b34801561020757600080fd5b50610210610949565b005b34801561021e57600080fd5b50610227610c13565b6040516102369392919061181f565b60405180910390f35b34801561024b57600080fd5b50610254610c4b565b005b61025e610d6a565b005b34801561026c57600080fd5b50610275610f82565b005b34801561028357600080fd5b5061028c611247565b60405161029991906118d2565b60405180910390f35b3480156102ae57600080fd5b506102b76112d5565b6040516102c491906118f4565b60405180910390f35b3480156102d957600080fd5b506102e26112e8565b6040516102ef91906118d2565b60405180910390f35b610300611376565b005b34801561030e57600080fd5b5061031761156d565b60405161032491906118f4565b60405180910390f35b3373ffffffffffffffffffffffffffffffffffffffff166000800160009054906101000a900473ffffffffffffffffffffffffffffffffffffffff1673ffffffffffffffffffffffffffffffffffffffff16146103bf576040517f08c379a00000000000000000000000000000000000000000000000000000000081526004016103b69061198f565b60405180910390fd5b6224ea006000600201546103d39190611ab4565b4211610414576040517f08c379a000000000000000000000000000000000000000000000000000000000815260040161040b906119cf565b60405180910390fd5b6000800160009054906101000a900473ffffffffffffffffffffffffffffffffffffffff1673ffffffffffffffffffffffffffffffffffffffff166108fc479081150290604051600060405180830381858888f1935050505015801561047e573d6000803e3d6000fd5b50565b60065481565b60008060008060000160009054906101000a900473ffffffffffffffffffffffffffffffffffffffff16600060010154600060020154925092509250909192565b600073ffffffffffffffffffffffffffffffffffffffff166000800160009054906101000a900473ffffffffffffffffffffffffffffffffffffffff1673ffffffffffffffffffffffffffffffffffffffff161461055b576040517f08c379a000000000000000000000000000000000000000000000000000000000815260040161055290611a2f565b60405180910390fd5b60405180606001604052803373ffffffffffffffffffffffffffffffffffffffff1681526020018281526020016224ea00426105979190611ab4565b8152506000808201518160000160006101000a81548173ffffffffffffffffffffffffffffffffffffffff021916908373ffffffffffffffffffffffffffffffffffffffff16021790555060208201518160010155604082015181600201559050507fcf85b9c681fe962b621d9d8d789f4f940e7736bb5a9a11cb8601a6d02b89f446338242600060020154604051610633949392919061188d565b60405180910390a150565b600047905090565b606060048054806020026020016040519081016040528092919081815260200182805480156106ca57602002820191906000526020600020905b8160009054906101000a900473ffffffffffffffffffffffffffffffffffffffff1673ffffffffffffffffffffffffffffffffffffffff1681526020019060010190808311610680575b5050505050905090565b600260065410610719576040517f08c379a00000000000000000000000000000000000000000000000000000000081526004016107109061196f565b60405180910390fd5b600060020154421115610761576040517f08c379a00000000000000000000000000000000000000000000000000000000081526004016107589061190f565b60405180910390fd5b670de0b6b3a76400003410156107ac576040517f08c379a00000000000000000000000000000000000000000000000000000000081526004016107a3906119ef565b60405180910390fd5b600360003373ffffffffffffffffffffffffffffffffffffffff1673ffffffffffffffffffffffffffffffffffffffff16815260200190815260200160002060009054906101000a900460ff1615610839576040517f08c379a0000000000000000000000000000000000000000000000000000000008152600401610830906119af565b60405180910390fd5b6001600360003373ffffffffffffffffffffffffffffffffffffffff1673ffffffffffffffffffffffffffffffffffffffff16815260200190815260200160002060006101000a81548160ff0219169083151502179055506005339080600181540180825580915050600190039060005260206000200160009091909190916101000a81548173ffffffffffffffffffffffffffffffffffffffff021916908373ffffffffffffffffffffffffffffffffffffffff1602179055506006600081548092919061090790611b95565b91905055507faba4f973c8f45a52365c8348704e79653e4b58ebd452f2d2115423a62ef7a3e133344260405161093f93929190611856565b60405180910390a1565b60006001015447106109ec576001600960006101000a81548160ff0219169083151502179055506000800160009054906101000a900473ffffffffffffffffffffffffffffffffffffffff1673ffffffffffffffffffffffffffffffffffffffff166108fc6002476109bb9190611b0a565b9081150290604051600060405180830381858888f193505050501580156109e6573d6000803e3d6000fd5b50610c11565b600060020154421115610c105760005b600580549050811015610acf5760058181548110610a43577f4e487b7100000000000000000000000000000000000000000000000000000000600052603260045260246000fd5b9060005260206000200160009054906101000a900473ffffffffffffffffffffffffffffffffffffffff1673ffffffffffffffffffffffffffffffffffffffff166108fc670de0b6b3a76400009081150290604051600060405180830381858888f19350505050158015610abb573d6000803e3d6000fd5b508080610ac790611b95565b9150506109fc565b5060005b600480549050811015610ba65760048181548110610b1a577f4e487b7100000000000000000000000000000000000000000000000000000000600052603260045260246000fd5b9060005260206000200160009054906101000a900473ffffffffffffffffffffffffffffffffffffffff1673ffffffffffffffffffffffffffffffffffffffff166108fc6714d1120d7b1600009081150290604051600060405180830381858888f19350505050158015610b92573d6000803e3d6000fd5b508080610b9e90611b95565b915050610ad3565b5060046000610bb59190611584565b60056000610bc39190611584565b600060068190555060008060000160006101000a81548173ffffffffffffffffffffffffffffffffffffffff021916908373ffffffffffffffffffffffffffffffffffffffff1602179055505b5b565b60008060000160009054906101000a900473ffffffffffffffffffffffffffffffffffffffff16908060010154908060020154905083565b6002600654600480549050610c609190611ab4565b610c6a9190611b0a565b60088054905010610d4d5760005b600880549050811015610d4b5760088181548110610cbf577f4e487b7100000000000000000000000000000000000000000000000000000000600052603260045260246000fd5b9060005260206000200160009054906101000a900473ffffffffffffffffffffffffffffffffffffffff1673ffffffffffffffffffffffffffffffffffffffff166108fc6706f05b59d3b200009081150290604051600060405180830381858888f19350505050158015610d37573d6000803e3d6000fd5b508080610d4390611b95565b915050610c78565b505b6000600960006101000a81548160ff021916908315150217905550565b600060020154421115610db2576040517f08c379a0000000000000000000000000000000000000000000000000000000008152600401610da99061190f565b60405180910390fd5b6714d1120d7b160000341015610dfd576040517f08c379a0000000000000000000000000000000000000000000000000000000008152600401610df4906119ef565b60405180910390fd5b600360003373ffffffffffffffffffffffffffffffffffffffff1673ffffffffffffffffffffffffffffffffffffffff16815260200190815260200160002060009054906101000a900460ff1615610e8a576040517f08c379a0000000000000000000000000000000000000000000000000000000008152600401610e81906119af565b60405180910390fd5b6001600360003373ffffffffffffffffffffffffffffffffffffffff1673ffffffffffffffffffffffffffffffffffffffff16815260200190815260200160002060006101000a81548160ff0219169083151502179055506004339080600181540180825580915050600190039060005260206000200160009091909190916101000a81548173ffffffffffffffffffffffffffffffffffffffff021916908373ffffffffffffffffffffffffffffffffffffffff1602179055507faba4f973c8f45a52365c8348704e79653e4b58ebd452f2d2115423a62ef7a3e1333442604051610f7893929190611856565b60405180910390a1565b3373ffffffffffffffffffffffffffffffffffffffff166000800160009054906101000a900473ffffffffffffffffffffffffffffffffffffffff1673ffffffffffffffffffffffffffffffffffffffff1614611014576040517f08c379a000000000000000000000000000000000000000000000000000000000815260040161100b9061198f565b60405180910390fd5b60005b6005805490508110156110ea576005818154811061105e577f4e487b7100000000000000000000000000000000000000000000000000000000600052603260045260246000fd5b9060005260206000200160009054906101000a900473ffffffffffffffffffffffffffffffffffffffff1673ffffffffffffffffffffffffffffffffffffffff166108fc670de0b6b3a76400009081150290604051600060405180830381858888f193505050501580156110d6573d6000803e3d6000fd5b5080806110e290611b95565b915050611017565b5060005b6004805490508110156111c15760048181548110611135577f4e487b7100000000000000000000000000000000000000000000000000000000600052603260045260246000fd5b9060005260206000200160009054906101000a900473ffffffffffffffffffffffffffffffffffffffff1673ffffffffffffffffffffffffffffffffffffffff166108fc6714d1120d7b1600009081150290604051600060405180830381858888f193505050501580156111ad573d6000803e3d6000fd5b5080806111b990611b95565b9150506110ee565b50600460006111d09190611584565b600560006111de9190611584565b60006006819055506000600960006101000a81548160ff02191690831515021790555060008060000160006101000a81548173ffffffffffffffffffffffffffffffffffffffff021916908373ffffffffffffffffffffffffffffffffffffffff160217905550565b606060088054806020026020016040519081016040528092919081815260200182805480156112cb57602002820191906000526020600020905b8160009054906101000a900473ffffffffffffffffffffffffffffffffffffffff1673ffffffffffffffffffffffffffffffffffffffff1681526020019060010190808311611281575b5050505050905090565b600960009054906101000a900460ff1681565b6060600580548060200260200160405190810160405280929190818152602001828054801561136c57602002820191906000526020600020905b8160009054906101000a900473ffffffffffffffffffffffffffffffffffffffff1673ffffffffffffffffffffffffffffffffffffffff1681526020019060010190808311611322575b5050505050905090565b6224ea0060006002015461138a9190611ab4565b4211156113cc576040517f08c379a00000000000000000000000000000000000000000000000000000000081526004016113c39061194f565b60405180910390fd5b600960009054906101000a900460ff1661141b576040517f08c379a00000000000000000000000000000000000000000000000000000000081526004016114129061192f565b60405180910390fd5b600760003373ffffffffffffffffffffffffffffffffffffffff1673ffffffffffffffffffffffffffffffffffffffff16815260200190815260200160002060009054906101000a900460ff16156114a8576040517f08c379a000000000000000000000000000000000000000000000000000000000815260040161149f90611a0f565b60405180910390fd5b6001600760003373ffffffffffffffffffffffffffffffffffffffff1673ffffffffffffffffffffffffffffffffffffffff16815260200190815260200160002060006101000a81548160ff0219169083151502179055506008339080600181540180825580915050600190039060005260206000200160009091909190916101000a81548173ffffffffffffffffffffffffffffffffffffffff021916908373ffffffffffffffffffffffffffffffffffffffff16021790555061156b610c4b565b565b6000600960009054906101000a900460ff16905090565b50805460008255906000526020600020908101906115a291906115a5565b50565b5b808211156115be5760008160009055506001016115a6565b5090565b6000813590506115d181611dfc565b92915050565b6000602082840312156115e957600080fd5b60006115f7848285016115c2565b91505092915050565b600061160c8383611618565b60208301905092915050565b61162181611b4d565b82525050565b61163081611b4d565b82525050565b61163f81611b3b565b82525050565b600061165082611a7a565b61165a8185611a92565b935061166583611a6a565b8060005b8381101561169657815161167d8882611600565b975061168883611a85565b925050600181019050611669565b5085935050505092915050565b6116ac81611b5f565b82525050565b60006116bf601283611aa3565b91506116ca82611c3c565b602082019050919050565b60006116e2600c83611aa3565b91506116ed82611c65565b602082019050919050565b6000611705601183611aa3565b915061171082611c8e565b602082019050919050565b6000611728601f83611aa3565b915061173382611cb7565b602082019050919050565b600061174b602183611aa3565b915061175682611ce0565b604082019050919050565b600061176e600f83611aa3565b915061177982611d2f565b602082019050919050565b6000611791601283611aa3565b915061179c82611d58565b602082019050919050565b60006117b4601183611aa3565b91506117bf82611d81565b602082019050919050565b60006117d7601683611aa3565b91506117e282611daa565b602082019050919050565b60006117fa600f83611aa3565b915061180582611dd3565b602082019050919050565b61181981611b8b565b82525050565b60006060820190506118346000830186611627565b6118416020830185611810565b61184e6040830184611810565b949350505050565b600060608201905061186b6000830186611636565b6118786020830185611810565b6118856040830184611810565b949350505050565b60006080820190506118a26000830187611636565b6118af6020830186611810565b6118bc6040830185611810565b6118c96060830184611810565b95945050505050565b600060208201905081810360008301526118ec8184611645565b905092915050565b600060208201905061190960008301846116a3565b92915050565b60006020820190508181036000830152611928816116b2565b9050919050565b60006020820190508181036000830152611948816116d5565b9050919050565b60006020820190508181036000830152611968816116f8565b9050919050565b600060208201905081810360008301526119888161171b565b9050919050565b600060208201905081810360008301526119a88161173e565b9050919050565b600060208201905081810360008301526119c881611761565b9050919050565b600060208201905081810360008301526119e881611784565b9050919050565b60006020820190508181036000830152611a08816117a7565b9050919050565b60006020820190508181036000830152611a28816117ca565b9050919050565b60006020820190508181036000830152611a48816117ed565b9050919050565b6000602082019050611a646000830184611810565b92915050565b6000819050602082019050919050565b600081519050919050565b6000602082019050919050565b600082825260208201905092915050565b600082825260208201905092915050565b6000611abf82611b8b565b9150611aca83611b8b565b9250827fffffffffffffffffffffffffffffffffffffffffffffffffffffffffffffffff03821115611aff57611afe611bde565b5b828201905092915050565b6000611b1582611b8b565b9150611b2083611b8b565b925082611b3057611b2f611c0d565b5b828204905092915050565b6000611b4682611b6b565b9050919050565b6000611b5882611b6b565b9050919050565b60008115159050919050565b600073ffffffffffffffffffffffffffffffffffffffff82169050919050565b6000819050919050565b6000611ba082611b8b565b91507fffffffffffffffffffffffffffffffffffffffffffffffffffffffffffffffff821415611bd357611bd2611bde565b5b600182019050919050565b7f4e487b7100000000000000000000000000000000000000000000000000000000600052601160045260246000fd5b7f4e487b7100000000000000000000000000000000000000000000000000000000600052601260045260246000fd5b7f43616d706169676e2068617320656e6465640000000000000000000000000000600082015250565b7f5665746f206973206f7665720000000000000000000000000000000000000000600082015250565b7f5665746f2074696d65206973206f766572000000000000000000000000000000600082015250565b7f4561726c79206269726420646973636f756e7420756e617661696c61626c6500600082015250565b7f4e6f7420417574686f72697a656420746f2063616e63656c2063616d7061696760008201527f6e00000000000000000000000000000000000000000000000000000000000000602082015250565b7f416c726561647920706c65646765640000000000000000000000000000000000600082015250565b7f5665746f2074696d65206e6f74206f7665720000000000000000000000000000600082015250565b7f496e737566666963656e74206574686572000000000000000000000000000000600082015250565b7f416c726561647920766f74656420666f72207665746f00000000000000000000600082015250565b7f416c726561647920637265617465640000000000000000000000000000000000600082015250565b611e0581611b8b565b8114611e1057600080fd5b5056fea26469706673582212204f0fce64d4c097a12b6ce9fc2961a3273fe160c48b7e96cc8cfb1c703a19772764736f6c63430008030033",
  "immutableReferences": {},
  "source": "// SPDX-License-Identifier: MIT\r\npragma solidity >=0.4.22 <0.8.20;\r\n\r\ncontract MileStarter {\r\n    event Launch(address creator, uint256 goal, uint256 startAt, uint256 endAt);\r\n    event Pledge(address backer, uint256 amount, uint256 time);\r\n\r\n    struct Campaign {\r\n        address payable creator;\r\n        uint256 goal;\r\n        uint256 endAt;\r\n    }\r\n\r\n    Campaign public campaign;\r\n\r\n    mapping(address => bool) backers;\r\n    address payable[] backersIndex;\r\n    address payable[] earlyBirdBackersIndex;\r\n    uint public earlyBirdBackersCount;\r\n\r\n    mapping(address => bool) vetoBackers;\r\n    address payable[] vetoBackersIndex;\r\n    bool public isVeto;\r\n\r\n    function launchCampaign(uint256 _goal) external {\r\n        require(\r\n            campaign.creator ==\r\n                address(0x0000000000000000000000000000000000000000),\r\n            \"Already created\"\r\n        );\r\n\r\n        campaign = Campaign({\r\n            creator: payable(msg.sender),\r\n            goal: _goal,\r\n            endAt: block.timestamp + 2419200\r\n        });\r\n\r\n        emit Launch(msg.sender, _goal, block.timestamp, campaign.endAt);\r\n    }\r\n\r\n    function pledge() external payable {\r\n        require(block.timestamp <= campaign.endAt, \"Campaign has ended\");\r\n        require(msg.value >= 1500000000000000000, \"Insufficent ether\");\r\n        require(!backers[msg.sender], \"Already pledged\");\r\n\r\n        backers[msg.sender] = true;\r\n        backersIndex.push(payable(msg.sender));\r\n\r\n        emit Pledge(msg.sender, msg.value, block.timestamp);\r\n    }\r\n\r\n    function pledgeEarlyBird() external payable {\r\n        require(earlyBirdBackersCount < 2, \"Early bird discount unavailable\");\r\n        require(block.timestamp <= campaign.endAt, \"Campaign has ended\");\r\n        require(msg.value >= 1000000000000000000, \"Insufficent ether\");\r\n        require(!backers[msg.sender], \"Already pledged\");\r\n\r\n        backers[msg.sender] = true;\r\n        earlyBirdBackersIndex.push(payable(msg.sender));\r\n        earlyBirdBackersCount++;\r\n\r\n        emit Pledge(msg.sender, msg.value, block.timestamp);\r\n    }\r\n\r\n    function veto() external payable {\r\n        require(\r\n            block.timestamp <= campaign.endAt + 2419200,\r\n            \"Veto time is over\"\r\n        );\r\n        require(isVeto, \"Veto is over\");\r\n        require(!vetoBackers[msg.sender], \"Already voted for veto\");\r\n\r\n        vetoBackers[msg.sender] = true;\r\n        vetoBackersIndex.push(payable(msg.sender));\r\n\r\n        checkIfVetoIsOver();\r\n    }\r\n\r\n    function getBackers() public view returns (address payable[] memory) {\r\n        return backersIndex;\r\n    }\r\n\r\n    function getEarlyBirdBackers()\r\n        public\r\n        view\r\n        returns (address payable[] memory)\r\n    {\r\n        return earlyBirdBackersIndex;\r\n    }\r\n\r\n    function getVetoBackers() public view returns (address payable[] memory) {\r\n        return vetoBackersIndex;\r\n    }\r\n\r\n    function getCampaign()\r\n        public\r\n        view\r\n        returns (address payable, uint256, uint256)\r\n    {\r\n        return (campaign.creator, campaign.goal, campaign.endAt);\r\n    }\r\n\r\n    function getIsVeto() public view returns (bool) {\r\n        return isVeto;\r\n    }\r\n\r\n    function getPledged() public view returns (uint256) {\r\n        return address(this).balance;\r\n    }\r\n\r\n    function cancelCampaign() public {\r\n        require(\r\n            campaign.creator == msg.sender,\r\n            \"Not Authorized to cancel campaign\"\r\n        );\r\n        for (uint i = 0; i < earlyBirdBackersIndex.length; i++) {\r\n            earlyBirdBackersIndex[i].transfer(1000000000000000000);\r\n        }\r\n        for (uint i = 0; i < backersIndex.length; i++) {\r\n            backersIndex[i].transfer(1500000000000000000);\r\n        }\r\n\r\n        delete backersIndex;\r\n        delete earlyBirdBackersIndex;\r\n        earlyBirdBackersCount = 0;\r\n        isVeto = false;\r\n\r\n        campaign.creator = payable(\r\n            address(0x0000000000000000000000000000000000000000)\r\n        );\r\n    }\r\n\r\n    function checkIfFundingIsDone() public {\r\n        if (address(this).balance >= campaign.goal) {\r\n            isVeto = true;\r\n            campaign.creator.transfer(address(this).balance / 2);\r\n        } else if (block.timestamp > campaign.endAt) {\r\n            for (uint i = 0; i < earlyBirdBackersIndex.length; i++) {\r\n                earlyBirdBackersIndex[i].transfer(1000000000000000000);\r\n            }\r\n            for (uint i = 0; i < backersIndex.length; i++) {\r\n                backersIndex[i].transfer(1500000000000000000);\r\n            }\r\n\r\n            delete backersIndex;\r\n            delete earlyBirdBackersIndex;\r\n            earlyBirdBackersCount = 0;\r\n\r\n            campaign.creator = payable(\r\n                address(0x0000000000000000000000000000000000000000)\r\n            );\r\n        }\r\n    }\r\n\r\n    function checkIfVetoIsOver() public {\r\n        if (\r\n            vetoBackersIndex.length >=\r\n            (backersIndex.length + earlyBirdBackersCount) / 2\r\n        ) {\r\n            for (uint i = 0; i < vetoBackersIndex.length; i++) {\r\n                vetoBackersIndex[i].transfer(500000000000000000);\r\n            }\r\n        }\r\n        isVeto = false;\r\n    }\r\n\r\n    function claimAfterVeto() public {\r\n        require(\r\n            campaign.creator == msg.sender,\r\n            \"Not Authorized to cancel campaign\"\r\n        );\r\n        require(\r\n            block.timestamp > campaign.endAt + 2419200,\r\n            \"Veto time not over\"\r\n        );\r\n        campaign.creator.transfer(address(this).balance);\r\n    }\r\n}\r\n",
  "sourcePath": "C:\\Users\\Sebastian\\Desktop\\MileStarter\\contracts\\MileStarter.sol",
  "compiler": {
    "name": "solc",
    "version": "0.8.3+commit.8d00100c.Emscripten.clang"
  },
  "schemaVersion": "3.4.13",
  "updatedAt": "2023-04-11T19:55:57.998Z",
  "networkType": "ethereum",
  "devdoc": {
    "kind": "dev",
    "methods": {},
    "version": 1
  },
  "userdoc": {
    "kind": "user",
    "methods": {},
    "version": 1
  }
}