{
  "contractName": "MileStarter",
  "abi": [
    {
      "anonymous": false,
      "inputs": [
        {
          "indexed": false,
          "internalType": "address",
          "name": "creator",
          "type": "address"
        },
        {
          "indexed": false,
          "internalType": "uint256",
          "name": "goal",
          "type": "uint256"
        },
        {
          "indexed": false,
          "internalType": "uint256",
          "name": "startAt",
          "type": "uint256"
        },
        {
          "indexed": false,
          "internalType": "uint256",
          "name": "endAt",
          "type": "uint256"
        }
      ],
      "name": "Launch",
      "type": "event"
    },
    {
      "anonymous": false,
      "inputs": [
        {
          "indexed": false,
          "internalType": "address",
          "name": "backer",
          "type": "address"
        },
        {
          "indexed": false,
          "internalType": "uint256",
          "name": "amount",
          "type": "uint256"
        },
        {
          "indexed": false,
          "internalType": "uint256",
          "name": "time",
          "type": "uint256"
        }
      ],
      "name": "Pledge",
      "type": "event"
    },
    {
      "inputs": [],
      "name": "campaign",
      "outputs": [
        {
          "internalType": "address payable",
          "name": "creator",
          "type": "address"
        },
        {
          "internalType": "uint256",
          "name": "goal",
          "type": "uint256"
        },
        {
          "internalType": "uint256",
          "name": "endAt",
          "type": "uint256"
        }
      ],
      "stateMutability": "view",
      "type": "function"
    },
    {
      "inputs": [],
      "name": "earlyBirdBackersCount",
      "outputs": [
        {
          "internalType": "uint256",
          "name": "",
          "type": "uint256"
        }
      ],
      "stateMutability": "view",
      "type": "function"
    },
    {
      "inputs": [],
      "name": "isVeto",
      "outputs": [
        {
          "internalType": "bool",
          "name": "",
          "type": "bool"
        }
      ],
      "stateMutability": "view",
      "type": "function"
    },
    {
      "inputs": [
        {
          "internalType": "uint256",
          "name": "_goal",
          "type": "uint256"
        }
      ],
      "name": "launchCampaign",
      "outputs": [],
      "stateMutability": "nonpayable",
      "type": "function"
    },
    {
      "inputs": [],
      "name": "pledge",
      "outputs": [],
      "stateMutability": "payable",
      "type": "function"
    },
    {
      "inputs": [],
      "name": "pledgeEarlyBird",
      "outputs": [],
      "stateMutability": "payable",
      "type": "function"
    },
    {
      "inputs": [],
      "name": "veto",
      "outputs": [],
      "stateMutability": "payable",
      "type": "function"
    },
    {
      "inputs": [],
      "name": "getBackers",
      "outputs": [
        {
          "internalType": "address payable[]",
          "name": "",
          "type": "address[]"
        }
      ],
      "stateMutability": "view",
      "type": "function"
    },
    {
      "inputs": [],
      "name": "getEarlyBirdBackers",
      "outputs": [
        {
          "internalType": "address payable[]",
          "name": "",
          "type": "address[]"
        }
      ],
      "stateMutability": "view",
      "type": "function"
    },
    {
      "inputs": [],
      "name": "getVetoBackers",
      "outputs": [
        {
          "internalType": "address payable[]",
          "name": "",
          "type": "address[]"
        }
      ],
      "stateMutability": "view",
      "type": "function"
    },
    {
      "inputs": [],
      "name": "getCampaign",
      "outputs": [
        {
          "internalType": "address payable",
          "name": "",
          "type": "address"
        },
        {
          "internalType": "uint256",
          "name": "",
          "type": "uint256"
        },
        {
          "internalType": "uint256",
          "name": "",
          "type": "uint256"
        }
      ],
      "stateMutability": "view",
      "type": "function"
    },
    {
      "inputs": [],
      "name": "getIsVeto",
      "outputs": [
        {
          "internalType": "bool",
          "name": "",
          "type": "bool"
        }
      ],
      "stateMutability": "view",
      "type": "function"
    },
    {
      "inputs": [],
      "name": "getPledged",
      "outputs": [
        {
          "internalType": "uint256",
          "name": "",
          "type": "uint256"
        }
      ],
      "stateMutability": "view",
      "type": "function"
    },
    {
      "inputs": [],
      "name": "cancelCampaign",
      "outputs": [],
      "stateMutability": "nonpayable",
      "type": "function"
    },
    {
      "inputs": [],
      "name": "checkIfFundingDone",
      "outputs": [],
      "stateMutability": "nonpayable",
      "type": "function"
    },
    {
      "inputs": [],
      "name": "checkIfVetoIsOver",
      "outputs": [],
      "stateMutability": "nonpayable",
      "type": "function"
    },
    {
      "inputs": [],
      "name": "claimAfterVeto",
      "outputs": [],
      "stateMutability": "nonpayable",
      "type": "function"
    }
  ],
  "bytecode": "0x608060405234801561001057600080fd5b50611e36806100206000396000f3fe6080604052600436106100fe5760003560e01c8063811e539c116100955780639a8532ca116100645780639a8532ca14610277578063c2db5954146102a2578063d23eda57146102cd578063ef9b78c6146102f8578063f1816d9214610302576100fe565b8063811e539c146102125780638131b02a1461023f57806388ffe86714610256578063980e784414610260576100fe565b80632664edcd116100d15780632664edcd1461018957806328c2cd40146101b257806330f3e3da146101dd578063501b518314610208576100fe565b80630f2f26ef14610103578063117f0d901461011a57806320c664ef14610145578063236b8e3a1461015c575b600080fd5b34801561010f57600080fd5b5061011861032d565b005b34801561012657600080fd5b5061012f610481565b60405161013c9190611a3c565b60405180910390f35b34801561015157600080fd5b5061015a610487565b005b34801561016857600080fd5b50610171610751565b6040516101809392919061180c565b60405180910390f35b34801561019557600080fd5b506101b060048036038101906101ab91906115c4565b610792565b005b3480156101be57600080fd5b506101c7610908565b6040516101d49190611a3c565b60405180910390f35b3480156101e957600080fd5b506101f2610910565b6040516101ff91906118bf565b60405180910390f35b61021061099e565b005b34801561021e57600080fd5b50610227610c1b565b6040516102369392919061180c565b60405180910390f35b34801561024b57600080fd5b50610254610c53565b005b61025e610d72565b005b34801561026c57600080fd5b50610275610f8a565b005b34801561028357600080fd5b5061028c611234565b60405161029991906118bf565b60405180910390f35b3480156102ae57600080fd5b506102b76112c2565b6040516102c491906118e1565b60405180910390f35b3480156102d957600080fd5b506102e26112d5565b6040516102ef91906118bf565b60405180910390f35b610300611363565b005b34801561030e57600080fd5b5061031761155a565b60405161032491906118e1565b60405180910390f35b3373ffffffffffffffffffffffffffffffffffffffff166000800160009054906101000a900473ffffffffffffffffffffffffffffffffffffffff1673ffffffffffffffffffffffffffffffffffffffff16146103bf576040517f08c379a00000000000000000000000000000000000000000000000000000000081526004016103b69061197c565b60405180910390fd5b6224ea006000600201546103d39190611aa1565b4211610414576040517f08c379a000000000000000000000000000000000000000000000000000000000815260040161040b906119bc565b60405180910390fd5b6000800160009054906101000a900473ffffffffffffffffffffffffffffffffffffffff1673ffffffffffffffffffffffffffffffffffffffff166108fc479081150290604051600060405180830381858888f1935050505015801561047e573d6000803e3d6000fd5b50565b60065481565b600060010154471061052a576000800160009054906101000a900473ffffffffffffffffffffffffffffffffffffffff1673ffffffffffffffffffffffffffffffffffffffff166108fc6002476104de9190611af7565b9081150290604051600060405180830381858888f19350505050158015610509573d6000803e3d6000fd5b506001600960006101000a81548160ff02191690831515021790555061074f565b60006002015442111561074e5760005b60058054905081101561060d5760058181548110610581577f4e487b7100000000000000000000000000000000000000000000000000000000600052603260045260246000fd5b9060005260206000200160009054906101000a900473ffffffffffffffffffffffffffffffffffffffff1673ffffffffffffffffffffffffffffffffffffffff166108fc670de0b6b3a76400009081150290604051600060405180830381858888f193505050501580156105f9573d6000803e3d6000fd5b50808061060590611b82565b91505061053a565b5060005b6004805490508110156106e45760048181548110610658577f4e487b7100000000000000000000000000000000000000000000000000000000600052603260045260246000fd5b9060005260206000200160009054906101000a900473ffffffffffffffffffffffffffffffffffffffff1673ffffffffffffffffffffffffffffffffffffffff166108fc6714d1120d7b1600009081150290604051600060405180830381858888f193505050501580156106d0573d6000803e3d6000fd5b5080806106dc90611b82565b915050610611565b50600460006106f39190611571565b600560006107019190611571565b600060068190555060008060000160006101000a81548173ffffffffffffffffffffffffffffffffffffffff021916908373ffffffffffffffffffffffffffffffffffffffff1602179055505b5b565b60008060008060000160009054906101000a900473ffffffffffffffffffffffffffffffffffffffff16600060010154600060020154925092509250909192565b600073ffffffffffffffffffffffffffffffffffffffff166000800160009054906101000a900473ffffffffffffffffffffffffffffffffffffffff1673ffffffffffffffffffffffffffffffffffffffff1614610825576040517f08c379a000000000000000000000000000000000000000000000000000000000815260040161081c90611a1c565b60405180910390fd5b60405180606001604052803373ffffffffffffffffffffffffffffffffffffffff1681526020018281526020016224ea00426108619190611aa1565b8152506000808201518160000160006101000a81548173ffffffffffffffffffffffffffffffffffffffff021916908373ffffffffffffffffffffffffffffffffffffffff16021790555060208201518160010155604082015181600201559050507fcf85b9c681fe962b621d9d8d789f4f940e7736bb5a9a11cb8601a6d02b89f4463382426000600201546040516108fd949392919061187a565b60405180910390a150565b600047905090565b6060600480548060200260200160405190810160405280929190818152602001828054801561099457602002820191906000526020600020905b8160009054906101000a900473ffffffffffffffffffffffffffffffffffffffff1673ffffffffffffffffffffffffffffffffffffffff168152602001906001019080831161094a575b5050505050905090565b6002600654106109e3576040517f08c379a00000000000000000000000000000000000000000000000000000000081526004016109da9061195c565b60405180910390fd5b600060020154421115610a2b576040517f08c379a0000000000000000000000000000000000000000000000000000000008152600401610a22906118fc565b60405180910390fd5b670de0b6b3a7640000341015610a76576040517f08c379a0000000000000000000000000000000000000000000000000000000008152600401610a6d906119dc565b60405180910390fd5b600360003373ffffffffffffffffffffffffffffffffffffffff1673ffffffffffffffffffffffffffffffffffffffff16815260200190815260200160002060009054906101000a900460ff1615610b03576040517f08c379a0000000000000000000000000000000000000000000000000000000008152600401610afa9061199c565b60405180910390fd5b6001600360003373ffffffffffffffffffffffffffffffffffffffff1673ffffffffffffffffffffffffffffffffffffffff16815260200190815260200160002060006101000a81548160ff0219169083151502179055506005339080600181540180825580915050600190039060005260206000200160009091909190916101000a81548173ffffffffffffffffffffffffffffffffffffffff021916908373ffffffffffffffffffffffffffffffffffffffff16021790555060066000815480929190610bd190611b82565b91905055507faba4f973c8f45a52365c8348704e79653e4b58ebd452f2d2115423a62ef7a3e1333442604051610c0993929190611843565b60405180910390a1610c19610487565b565b60008060000160009054906101000a900473ffffffffffffffffffffffffffffffffffffffff16908060010154908060020154905083565b6002600654600480549050610c689190611aa1565b610c729190611af7565b60088054905010610d555760005b600880549050811015610d535760088181548110610cc7577f4e487b7100000000000000000000000000000000000000000000000000000000600052603260045260246000fd5b9060005260206000200160009054906101000a900473ffffffffffffffffffffffffffffffffffffffff1673ffffffffffffffffffffffffffffffffffffffff166108fc6706f05b59d3b200009081150290604051600060405180830381858888f19350505050158015610d3f573d6000803e3d6000fd5b508080610d4b90611b82565b915050610c80565b505b6000600960006101000a81548160ff021916908315150217905550565b600060020154421115610dba576040517f08c379a0000000000000000000000000000000000000000000000000000000008152600401610db1906118fc565b60405180910390fd5b6714d1120d7b160000341015610e05576040517f08c379a0000000000000000000000000000000000000000000000000000000008152600401610dfc906119dc565b60405180910390fd5b600360003373ffffffffffffffffffffffffffffffffffffffff1673ffffffffffffffffffffffffffffffffffffffff16815260200190815260200160002060009054906101000a900460ff1615610e92576040517f08c379a0000000000000000000000000000000000000000000000000000000008152600401610e899061199c565b60405180910390fd5b6001600360003373ffffffffffffffffffffffffffffffffffffffff1673ffffffffffffffffffffffffffffffffffffffff16815260200190815260200160002060006101000a81548160ff0219169083151502179055506004339080600181540180825580915050600190039060005260206000200160009091909190916101000a81548173ffffffffffffffffffffffffffffffffffffffff021916908373ffffffffffffffffffffffffffffffffffffffff1602179055507faba4f973c8f45a52365c8348704e79653e4b58ebd452f2d2115423a62ef7a3e1333442604051610f8093929190611843565b60405180910390a1565b3373ffffffffffffffffffffffffffffffffffffffff166000800160009054906101000a900473ffffffffffffffffffffffffffffffffffffffff1673ffffffffffffffffffffffffffffffffffffffff161461101c576040517f08c379a00000000000000000000000000000000000000000000000000000000081526004016110139061197c565b60405180910390fd5b60005b6005805490508110156110f25760058181548110611066577f4e487b7100000000000000000000000000000000000000000000000000000000600052603260045260246000fd5b9060005260206000200160009054906101000a900473ffffffffffffffffffffffffffffffffffffffff1673ffffffffffffffffffffffffffffffffffffffff166108fc670de0b6b3a76400009081150290604051600060405180830381858888f193505050501580156110de573d6000803e3d6000fd5b5080806110ea90611b82565b91505061101f565b5060005b6004805490508110156111c9576004818154811061113d577f4e487b7100000000000000000000000000000000000000000000000000000000600052603260045260246000fd5b9060005260206000200160009054906101000a900473ffffffffffffffffffffffffffffffffffffffff1673ffffffffffffffffffffffffffffffffffffffff166108fc6714d1120d7b1600009081150290604051600060405180830381858888f193505050501580156111b5573d6000803e3d6000fd5b5080806111c190611b82565b9150506110f6565b50600460006111d89190611571565b600560006111e69190611571565b600060068190555060008060000160006101000a81548173ffffffffffffffffffffffffffffffffffffffff021916908373ffffffffffffffffffffffffffffffffffffffff160217905550565b606060088054806020026020016040519081016040528092919081815260200182805480156112b857602002820191906000526020600020905b8160009054906101000a900473ffffffffffffffffffffffffffffffffffffffff1673ffffffffffffffffffffffffffffffffffffffff168152602001906001019080831161126e575b5050505050905090565b600960009054906101000a900460ff1681565b6060600580548060200260200160405190810160405280929190818152602001828054801561135957602002820191906000526020600020905b8160009054906101000a900473ffffffffffffffffffffffffffffffffffffffff1673ffffffffffffffffffffffffffffffffffffffff168152602001906001019080831161130f575b5050505050905090565b6224ea006000600201546113779190611aa1565b4211156113b9576040517f08c379a00000000000000000000000000000000000000000000000000000000081526004016113b09061193c565b60405180910390fd5b600960009054906101000a900460ff16611408576040517f08c379a00000000000000000000000000000000000000000000000000000000081526004016113ff9061191c565b60405180910390fd5b600760003373ffffffffffffffffffffffffffffffffffffffff1673ffffffffffffffffffffffffffffffffffffffff16815260200190815260200160002060009054906101000a900460ff1615611495576040517f08c379a000000000000000000000000000000000000000000000000000000000815260040161148c906119fc565b60405180910390fd5b6001600760003373ffffffffffffffffffffffffffffffffffffffff1673ffffffffffffffffffffffffffffffffffffffff16815260200190815260200160002060006101000a81548160ff0219169083151502179055506008339080600181540180825580915050600190039060005260206000200160009091909190916101000a81548173ffffffffffffffffffffffffffffffffffffffff021916908373ffffffffffffffffffffffffffffffffffffffff160217905550611558610c53565b565b6000600960009054906101000a900460ff16905090565b508054600082559060005260206000209081019061158f9190611592565b50565b5b808211156115ab576000816000905550600101611593565b5090565b6000813590506115be81611de9565b92915050565b6000602082840312156115d657600080fd5b60006115e4848285016115af565b91505092915050565b60006115f98383611605565b60208301905092915050565b61160e81611b3a565b82525050565b61161d81611b3a565b82525050565b61162c81611b28565b82525050565b600061163d82611a67565b6116478185611a7f565b935061165283611a57565b8060005b8381101561168357815161166a88826115ed565b975061167583611a72565b925050600181019050611656565b5085935050505092915050565b61169981611b4c565b82525050565b60006116ac601283611a90565b91506116b782611c29565b602082019050919050565b60006116cf600c83611a90565b91506116da82611c52565b602082019050919050565b60006116f2601183611a90565b91506116fd82611c7b565b602082019050919050565b6000611715601f83611a90565b915061172082611ca4565b602082019050919050565b6000611738602183611a90565b915061174382611ccd565b604082019050919050565b600061175b600f83611a90565b915061176682611d1c565b602082019050919050565b600061177e601283611a90565b915061178982611d45565b602082019050919050565b60006117a1601183611a90565b91506117ac82611d6e565b602082019050919050565b60006117c4601683611a90565b91506117cf82611d97565b602082019050919050565b60006117e7600f83611a90565b91506117f282611dc0565b602082019050919050565b61180681611b78565b82525050565b60006060820190506118216000830186611614565b61182e60208301856117fd565b61183b60408301846117fd565b949350505050565b60006060820190506118586000830186611623565b61186560208301856117fd565b61187260408301846117fd565b949350505050565b600060808201905061188f6000830187611623565b61189c60208301866117fd565b6118a960408301856117fd565b6118b660608301846117fd565b95945050505050565b600060208201905081810360008301526118d98184611632565b905092915050565b60006020820190506118f66000830184611690565b92915050565b600060208201905081810360008301526119158161169f565b9050919050565b60006020820190508181036000830152611935816116c2565b9050919050565b60006020820190508181036000830152611955816116e5565b9050919050565b6000602082019050818103600083015261197581611708565b9050919050565b600060208201905081810360008301526119958161172b565b9050919050565b600060208201905081810360008301526119b58161174e565b9050919050565b600060208201905081810360008301526119d581611771565b9050919050565b600060208201905081810360008301526119f581611794565b9050919050565b60006020820190508181036000830152611a15816117b7565b9050919050565b60006020820190508181036000830152611a35816117da565b9050919050565b6000602082019050611a5160008301846117fd565b92915050565b6000819050602082019050919050565b600081519050919050565b6000602082019050919050565b600082825260208201905092915050565b600082825260208201905092915050565b6000611aac82611b78565b9150611ab783611b78565b9250827fffffffffffffffffffffffffffffffffffffffffffffffffffffffffffffffff03821115611aec57611aeb611bcb565b5b828201905092915050565b6000611b0282611b78565b9150611b0d83611b78565b925082611b1d57611b1c611bfa565b5b828204905092915050565b6000611b3382611b58565b9050919050565b6000611b4582611b58565b9050919050565b60008115159050919050565b600073ffffffffffffffffffffffffffffffffffffffff82169050919050565b6000819050919050565b6000611b8d82611b78565b91507fffffffffffffffffffffffffffffffffffffffffffffffffffffffffffffffff821415611bc057611bbf611bcb565b5b600182019050919050565b7f4e487b7100000000000000000000000000000000000000000000000000000000600052601160045260246000fd5b7f4e487b7100000000000000000000000000000000000000000000000000000000600052601260045260246000fd5b7f43616d706169676e2068617320656e6465640000000000000000000000000000600082015250565b7f5665746f206973206f7665720000000000000000000000000000000000000000600082015250565b7f5665746f2074696d65206973206f766572000000000000000000000000000000600082015250565b7f4561726c79206269726420646973636f756e7420756e617661696c61626c6500600082015250565b7f4e6f7420417574686f72697a656420746f2063616e63656c2063616d7061696760008201527f6e00000000000000000000000000000000000000000000000000000000000000602082015250565b7f416c726561647920706c65646765640000000000000000000000000000000000600082015250565b7f5665746f2074696d65206e6f74206f7665720000000000000000000000000000600082015250565b7f496e737566666963656e74206574686572000000000000000000000000000000600082015250565b7f416c726561647920766f74656420666f72207665746f00000000000000000000600082015250565b7f416c726561647920637265617465640000000000000000000000000000000000600082015250565b611df281611b78565b8114611dfd57600080fd5b5056fea2646970667358221220e547f4534960a8d81dd679f3f6981684da690b8b5dffc98183a5f39f8295bdaa64736f6c63430008030033",
  "immutableReferences": {},
  "source": "// SPDX-License-Identifier: MIT\r\npragma solidity >=0.4.22 <0.8.20;\r\n\r\ncontract MileStarter {\r\n    event Launch(address creator, uint256 goal, uint256 startAt, uint256 endAt);\r\n    event Pledge(address backer, uint256 amount, uint256 time);\r\n\r\n    struct Campaign {\r\n        address payable creator;\r\n        uint256 goal;\r\n        uint256 endAt;\r\n    }\r\n\r\n    Campaign public campaign;\r\n\r\n    mapping(address => bool) backers;\r\n    address payable[] backersIndex;\r\n    address payable[] earlyBirdBackersIndex;\r\n    uint public earlyBirdBackersCount;\r\n\r\n    mapping(address => bool) vetoBackers;\r\n    address payable[] vetoBackersIndex;\r\n    bool public isVeto;\r\n\r\n    function launchCampaign(uint256 _goal) external {\r\n        require(\r\n            campaign.creator ==\r\n                address(0x0000000000000000000000000000000000000000),\r\n            \"Already created\"\r\n        );\r\n\r\n        campaign = Campaign({\r\n            creator: payable(msg.sender),\r\n            goal: _goal,\r\n            endAt: block.timestamp + 2419200\r\n        });\r\n\r\n        emit Launch(msg.sender, _goal, block.timestamp, campaign.endAt);\r\n    }\r\n\r\n    function pledge() external payable {\r\n        require(block.timestamp <= campaign.endAt, \"Campaign has ended\");\r\n        require(msg.value >= 1500000000000000000, \"Insufficent ether\");\r\n        require(!backers[msg.sender], \"Already pledged\");\r\n\r\n        backers[msg.sender] = true;\r\n        backersIndex.push(payable(msg.sender));\r\n\r\n        emit Pledge(msg.sender, msg.value, block.timestamp);\r\n    }\r\n\r\n    function pledgeEarlyBird() external payable {\r\n        require(earlyBirdBackersCount < 2, \"Early bird discount unavailable\");\r\n        require(block.timestamp <= campaign.endAt, \"Campaign has ended\");\r\n        require(msg.value >= 1000000000000000000, \"Insufficent ether\");\r\n        require(!backers[msg.sender], \"Already pledged\");\r\n\r\n        backers[msg.sender] = true;\r\n        earlyBirdBackersIndex.push(payable(msg.sender));\r\n        earlyBirdBackersCount++;\r\n\r\n        emit Pledge(msg.sender, msg.value, block.timestamp);\r\n\r\n        checkIfFundingDone();\r\n    }\r\n\r\n    function veto() external payable {\r\n        require(\r\n            block.timestamp <= campaign.endAt + 2419200,\r\n            \"Veto time is over\"\r\n        );\r\n        require(isVeto, \"Veto is over\");\r\n        require(!vetoBackers[msg.sender], \"Already voted for veto\");\r\n\r\n        vetoBackers[msg.sender] = true;\r\n        vetoBackersIndex.push(payable(msg.sender));\r\n\r\n        checkIfVetoIsOver();\r\n    }\r\n\r\n    function getBackers() public view returns (address payable[] memory) {\r\n        return backersIndex;\r\n    }\r\n\r\n    function getEarlyBirdBackers()\r\n        public\r\n        view\r\n        returns (address payable[] memory)\r\n    {\r\n        return earlyBirdBackersIndex;\r\n    }\r\n\r\n    function getVetoBackers() public view returns (address payable[] memory) {\r\n        return vetoBackersIndex;\r\n    }\r\n\r\n    function getCampaign()\r\n        public\r\n        view\r\n        returns (address payable, uint256, uint256)\r\n    {\r\n        return (campaign.creator, campaign.goal, campaign.endAt);\r\n    }\r\n\r\n    function getIsVeto() public view returns (bool) {\r\n        return isVeto;\r\n    }\r\n\r\n    function getPledged() public view returns (uint256) {\r\n        return address(this).balance;\r\n    }\r\n\r\n    function cancelCampaign() public {\r\n        require(\r\n            campaign.creator == msg.sender,\r\n            \"Not Authorized to cancel campaign\"\r\n        );\r\n        for (uint i = 0; i < earlyBirdBackersIndex.length; i++) {\r\n            earlyBirdBackersIndex[i].transfer(1000000000000000000);\r\n        }\r\n        for (uint i = 0; i < backersIndex.length; i++) {\r\n            backersIndex[i].transfer(1500000000000000000);\r\n        }\r\n\r\n        delete backersIndex;\r\n        delete earlyBirdBackersIndex;\r\n        earlyBirdBackersCount = 0;\r\n\r\n        campaign.creator = payable(\r\n            address(0x0000000000000000000000000000000000000000)\r\n        );\r\n    }\r\n\r\n    function checkIfFundingDone() public {\r\n        if (address(this).balance >= campaign.goal) {\r\n            campaign.creator.transfer(address(this).balance / 2);\r\n            isVeto = true;\r\n        } else if (block.timestamp > campaign.endAt) {\r\n            for (uint i = 0; i < earlyBirdBackersIndex.length; i++) {\r\n                earlyBirdBackersIndex[i].transfer(1000000000000000000);\r\n            }\r\n            for (uint i = 0; i < backersIndex.length; i++) {\r\n                backersIndex[i].transfer(1500000000000000000);\r\n            }\r\n\r\n            delete backersIndex;\r\n            delete earlyBirdBackersIndex;\r\n            earlyBirdBackersCount = 0;\r\n\r\n            campaign.creator = payable(\r\n                address(0x0000000000000000000000000000000000000000)\r\n            );\r\n        }\r\n    }\r\n\r\n    function checkIfVetoIsOver() public {\r\n        if (\r\n            vetoBackersIndex.length >=\r\n            (backersIndex.length + earlyBirdBackersCount) / 2\r\n        ) {\r\n            for (uint i = 0; i < vetoBackersIndex.length; i++) {\r\n                vetoBackersIndex[i].transfer(500000000000000000);\r\n            }\r\n        }\r\n        isVeto = false;\r\n    }\r\n\r\n    function claimAfterVeto() public {\r\n        require(\r\n            campaign.creator == msg.sender,\r\n            \"Not Authorized to cancel campaign\"\r\n        );\r\n        require(\r\n            block.timestamp > campaign.endAt + 2419200,\r\n            \"Veto time not over\"\r\n        );\r\n        campaign.creator.transfer(address(this).balance);\r\n    }\r\n}\r\n",
  "sourcePath": "C:\\Users\\Sebastian\\Desktop\\MileStarter\\contracts\\MileStarter.sol",
  "compiler": {
    "name": "solc",
    "version": "0.8.3+commit.8d00100c.Emscripten.clang"
  },
  "schemaVersion": "3.4.13",
  "updatedAt": "2023-04-05T20:21:07.473Z",
  "devdoc": {
    "kind": "dev",
    "methods": {},
    "version": 1
  },
  "userdoc": {
    "kind": "user",
    "methods": {},
    "version": 1
  }
}